:02000000712B62
:10000800FF00030E8301EE000A08EF008A01700862
:10001800A3007108A2007208A1007308A0000B1CBD
:100028001A280130C7000030C8000B108B1E3B286F
:100038000B1D3B28FC308F000B308E000B118316F4
:100048003C08F0003D08F1003E08F2003F08F300CC
:10005800F00A0319F10A0319F20A0319F30A7008DE
:10006800BC007108BD007208BE007308BF0083128F
:100078002308F0002208F1002108F2002008F3000C
:0E0088006F088A006E0E8300FF0E7F0E0900C7
:0E0096008316031345088A0044088200080000
:1000A4008316031398185828000052285408831202
:0400B40099000800A7
:1000B80083120313FB01FA01F9018030F800F10CF7
:1000C800F00C031C70287408F90775080318750FDD
:1000D800FA070318FB0A0310F01F78287408FA07B8
:1000E80075080318750FFB07FB0CFA0CF90CF80CD4
:1000F800031C63287B08F3007A08F2007908F100F2
:060108007808F000080079
:10010E00831603178C1C8D280000872803135008B4
:10011E00831203178D0083160313510883120317DE
:10012E008C0083168C130C150B08F0008B135530B6
:10013E008D00AA308D008C14F01BA7288B13A828D5
:06014E008B170C110800E4
:100154004B208A110A128000840AC40A0319C50AB2
:08016400F003031DAA280800A6
:10016C00831603135008831203178D0083168C1308
:0A017C000C1483120C08F0000800B8
:0C018600831203139B011D129D12080040
:10019200831603131208013EF000F1010318F10A5D
:1001A2005008F400F5015C200630F2007008F400FB
:1001B2007108F50072080319E328F50CF40CF51325
:1001C200FF3EDC280430F1007408F00071080319C6
:1001D200EE28F00D7010FF3EE82830307005F30075
:1001E2007408F0007508F100F10CF00CF113F10C39
:1001F200F00CF113700895000F30970573089704FF
:020202000800F2
:10020400831603130711831212150C309704080088
:0C021400831203139501171297120800C3
:10022000831603133C08F0003D08F1003E08F2007D
:060230003F08F300080086
:100236008312031310148B16901290119012101241
:0A024600FC308F000B308E00080022
:10025000831603139816903083129800831687171D
:10026000071383128C1E37291A08F0003129080061
:10027000831603131208013EF000F1010318F10A7E
:100280005008F400F5015C200630F2007008F4001C
:100290007108F500720803195229F50CF40CF513D6
:1002A000FF3E4B290430F1007408F0007108031977
:1002B0005D29F00D7010FF3E572930307005F300B6
:1002C0007408F0007508F100F10CF00CF113F10C5A
:1002D000F00CF11370089B000F309D0573089D040E
:0202E000080014
:1002E20083120313871007110330FB008A30FC00CE
:1002F2005530FD00FD0B7B29FC0B7B29FB0B7B2979
:1003020000000000871407150330FB008A30FC0050
:100312005530FD00FD0B8B29FC0B8B29FB0B8B2928
:06032200000000000800CD
:040328006400080065
:10032C00831603138710831212150C309D040800DA
:10033C00831603135108F000F00CF013F00CF013BB
:10034C00F00CF013F00CF0130030F100F130F0076A
:10035C0006300318013EF1077008C4007108C5008F
:10036C004B208A110A12F000520884007008800099
:10037C00520AF2000F305105F0000030F100F1305C
:10038C00F00706300318013EF1077008C40071082D
:10039C00C5004B208A110A12F00072088400700804
:1003AC00800002305207F2005008F000F00CF013FD
:1003BC00F00CF013F00CF013F00CF0130030F10013
:1003CC00F130F00706300318013EF1077008C40045
:1003DC007108C5004B208A110A12F00072088400C3
:1003EC007008800003305207F2000F305005F00007
:1003FC000030F100F130F00706300318013EF10730
:10040C007008C4007108C5004B208A110A12F00054
:10041C007208840070088000043052078400800148
:02042C000800C6
:10042E0083160313D201500884000008D10051082E
:10043E00003A03192D2A5108D40052208316D20AED
:0E044E005208500784000008D1001E2A080042
:10045C0083160313D0018312B1010130B000803038
:10046C0030020318972A83165008293EF1005008D1
:10047C00393E84000008F000710884007008800088
:10048C0083123009850083165008393E840083128C
:10049C000608800083165008393EF100710884006C
:1004AC00831206080004F0007108840070088000B4
:1004BC0083165008393EF100710884008312060837
:1004CC000004F00071088400700880008316500846
:1004DC00393EF100710884000009F00071088400B5
:1004EC00700880005008323EF2005008393E8400FB
:1004FC000008F1005008293E84000009F000710842
:10050C00F00572088400700880005008323E8400A8
:10051C0000088312B1048316D00A8312B00D301078
:04052C00352A080064
:10053000831603135008840000080319AC2A5008DE
:1005400084000008F1005108840071080006031DB2
:10055000AC2AD00AD10A982A500884000008F0007A
:10056000510884000008F002F101031CF1030800A7
:1005700083160313D001D101D201D30101308312BC
:10058000B000803030020318412B0130A4008030CD
:10059000240203183B2B83165108323E8400831239
:1005A00024080005F0000319352B00302806031D30
:1005B000DB2A01302706031DF22AA701A8016D08D6
:1005C000003A031DF22A831650080E3A031DF22A40
:1005D0008312250826040130031D0030A500A60063
:1005E0000030A60083126D08003A031D032B83160A
:1005F0005008063A031D032B01308312A700003078
:10060000A800A501A601831200302606031D0A2BAF
:1006100001302506031D152B00302806031D122B63
:1006200000302706031D152BED0A3130F000003095
:10063000F1006D08F400F5015C20C430F0070530CE
:100640000318013EF10783165008F0070318F10A5A
:100650007008C4007108C5004B208A110A12D4002A
:10066000522083165008D200D3018316D00A831279
:10067000A40D2410C72A8316D10A8312B00D30109E
:10068000C12A01303B05F40001303A05F30073083C
:10069000F000F101F00DF10D701070087404F3001A
:1006A00000307104F40040303905F2007208F000A7
:1006B000F00CF013F00CF013F00CF013F00CF0133E
:1006C0000030F1007308F0047408F1047008A03ED3
:1006D00084000008ED0083165208F0005308F10072
:0206E000080010
:1006E200022783160313CC01CD01CE01CF0167305F
:1006F2008F000130D000B620700883160313CE009D
:10070200CF01C42BCF309900181128210E2CCF30E5
:1007120083169900181528210E2C6730831699002C
:10072200181528210E2C333083169900181528210C
:100732000E2C193083169900181528210E2C0C3016
:1007420083169900181528210E2C0630831699005D
:10075200181528210E2C033083169900181528210C
:100762000E2C013083169900181528210E2C013009
:100772008316D0000430D100872033300313990050
:10078200181528210E2C003083164F06031DCB2B83
:1007920001304E060319832B00304F06031DD32B65
:1007A20002304E060319882B00304F06031DDB2B47
:1007B20003304E0603198E2B00304F06031DE32B28
:1007C20004304E060319942B00304F06031DEB2B09
:1007D20005304E0603199A2B00304F06031DF32BEA
:1007E20006304E060319A02B00304F06031DFB2BCB
:1007F20007304E060319A62B00304F06031D032CAB
:1008020008304E060319AC2B00304F06031D0B2C8B
:1008120009304E060319B22BB82B83160317880131
:1008220089018312031385018316850183128601D0
:10083200FF3083168600FF308312870083168701FC
:100842008B110B107F3096008B178101FF308312C2
:10085200870087100711871107124130FC00EE3024
:10086200FD00FD0B322CFC0B322C0000FF30870008
:100872001B21121092101330831692000A21FF30AE
:100882008316D000C9200221121092101330831651
:100892009200C320FF308316D00038219621033006
:1008A2008316D000B6207008013A031D5D2C01307A
:1008B2000313EB000030EC000330FB008A30FC0035
:1008C2005530FD00FD0B632CFC0B632CFB0B632CE2
:1008D200000000002E22371C9D2C01308316D00010
:1008E200B6207008013EF100F2010318F20A710805
:1008F20083160313C6007208C70000307206031D78
:10090200842C0A307106031D882CC601C7010130F0
:10091200D0004608D100872071210630FB00133039
:10092200FC00AD30FD00FD0B942CFC0B942CFB0B5A
:10093200942C000000009421B71CA92C533083167C
:10094200D0001722B830D0001722AC30D0001722C6
:100952008312371DAC2C371EAE2CB71DB02CB71E20
:10096200B22C371FB42C321CB62CB21CB82C321D40
:10097200C72C01308316D0000430D1008720033009
:100982000313D000D1018720712194211021700816
:10099200C8007108C9007208CA007308CB00003091
:1009A20083126C06031DD72C01306B06031D2D2DFF
:1009B20083164808F1004908F2004A08F3004B0880
:1009C200F4002808F1022908031C290FF2022A0860
:1009D200031C2A0FF3022B08031C2B0FF402003016
:1009E2007402031DFE2C00307302031DFE2C013025
:1009F2007202031DFE2CF4307102031C2D2D83168E
:100A02004808A8004908A9004A08AA004B08AB00F8
:100A12000A3083124507F10046080318013EF2002E
:100A22007108C5007208C6008030F000803072067E
:100A32007002031D1E2D7108FF3C0318252DFF3087
:100A4200C500C6018715071645088316D000C920C0
:100A520045088316D00038212E22B8227008CC0017
:100A62007108CD00831231080319BD2D00306C06C8
:100A7200031D3D2D01306B06031D472D8316D0014A
:100A8200C9208316D0013821C501C60183164C083E
:100A9200D0004D08D100C030D2009E21C030D0001D
:100AA2004030D100982200307106031D5A2D0030CB
:100AB2007006031D872D003083126C06031D632D03
:100AC20000306B06031D742D03308316D0000130F5
:100AD200D1008720013083120313EB000030EC00B9
:100AE20087100711872D03308316D000D10187208C
:100AF200FF30831203138700EB01EC01FF308316F2
:100B0200D000C920FF308316D0003821C0308316B0
:100B1200D0004E30D100982200307106031D932D73
:100B220000307006031DA02D003083126C06031DD9
:100B32009C2D01306B06031DA02D8711A22D83125F
:100B42008715C0308316D0004930D100982200307A
:100B52007106031DAE2D00307006031DBB2D003043
:100B620083126C06031DB72D01306B06031DBB2DCE
:0C0B72000712BD2D83120716C72CBE2DE4
:100E040024308400493083120313F00088308316A1
:100E1400C4000630C500AA20A0308400203003138B
:100E2400F000D1308316C4000630C500AA200800A3
:100B88003834393430340D3470342C340034003473
:100B9800003411342E3420346D34103400347A3457
:100BA80078347634633462346E3461347334643444
:100BB8006734663468346A3471347734653474342D
:100BC800723479347534313432343334353434341E
:100BD800363437346B3469346F34003400346C3451
:100BE80008343834393430340D3450342C3400342B
:100BF8000034003400342E3420344D3400340034B2
:100C08005A3458345634433442344E3441345334CD
:100C180044344734463448344A34513457344534DC
:100C280054345234593455343134323433343534FD
:100C38003434363437344B3449344F340034003488
:100C48004C3408343834393430340D3429343A3497
:100C580000340034003400343F3420343E3400344F
:100C68000034603427342D34BB347C343C347E3437
:100C78009A347B34A8347D342F34273421344034DB
:100C88008034253423345E342634313432343334DA
:100C980035343434363437345B342A342834003429
:100CA80000345D3408343834393430340D343D344C
:100CB8003B340034003400340034BF342034B534BD
:100CC800003400341B3409345F34E7342B34F134F6
:100CD800E134DF34F034A534A3345C342234A13455
:100CE800E534E834FE342434FD34F9343134323414
:100CF80033343534343436343734A934EC34F234BC
:080D080000340034F834083413
:020D10000034AD
:040D12000034003475
:040D16000034003471
:0E0D1A0000340034003400340034003400345F
:020D2800003495
:020D2A00003493
:0E0D2C0000340034003400340034003400344D
:0E0D3A0000340034003400340034003400343F
:0A0D480030343034303438340034D5
:040D52000034003435
:040D56000034003431
:0A0D5A0030343034303436340034C5
:0A0D640030343034303437340034BA
:100D6E000D340A342A3420345334743461347234DA
:100D7E00743469346E3467342034433468346134E7
:100D8E0074347034613464342E342E342E34003482
:040D9E0000340034E9
:100DA2000034013402340234033403340334033490
:080DB200003400340034003469
:100DBA0020345634533432343034323431342034DB
:080DCA002A340D340A34003410
:080DD20031342E3430340034BA
:080DDA00003400340034003441
:100DE20030343134323433343434353436343734C5
:100DF200383439344134423443344434453446344B
:04400E00F22F000786
:00000001FF
