:02000000822B51
:10000800FF00030E83018316C2000A08C3008A0199
:1000180070088312A3007108A2007208A100730877
:10002800A0000B1C1C280130A4000030A5000B10F8
:100038008B1E3D280B1D3D28FC308F000B308E0099
:100048000B1183163A08F0003B08F1003C08F20057
:100058003D08F300F00A0319F10A0319F20A03191B
:10006800F30A7008BA007108BB007208BC00730874
:10007800BD0083122308F0002208F1002108F200D5
:100088002008F300831643088A00420E8300FF0EFF
:040098007F0E0900CE
:0E009C008316031345088A00440882000800FA
:1000AA008316031398185B280000552854088312F6
:0400BA0099000800A1
:1000BE0083120313FB01FA01F9018030F800F10CF1
:1000CE00F00C031C73287408F90775080318750FD4
:1000DE00FA070318FB0A0310F01F7B287408FA07AF
:1000EE0075080318750FFB07FB0CFA0CF90CF80CCE
:1000FE00031C66287B08F3007A08F2007908F100E9
:06010E007808F000080073
:100114004E208A110A128000840AC40A0319C50AEF
:08012400F003031D8A28080006
:0C012C00831203139501171297120800AC
:100138008316031398169030831298008316871736
:10014800071383128C1EAB281A08F000A528080094
:10015800831603178C1CB2280000AC280313500820
:10016800831203178D008316031351088312031794
:100178008C0083168C130C150B08F0008B1355306C
:100188008D00AA308D008C14F01BCC288B13CD2841
:060198008B170C1108009A
:10019E008312031310148B169012901190121012DA
:0A01AE00FC308F000B308E000800BB
:1001B800831603131208013EF000F1010318F10A37
:1001C8005008F400F5015F200630F2007008F400D2
:1001D8007108F50072080319F628F50CF40CF513EC
:1001E800FF3EEF280430F1007408F000710803198D
:1001F8000129F00D7010FF3EFB2830307005F30028
:100208007408F0007508F100F10CF00CF113F10C12
:10021800F00CF113700895000F30970573089704D8
:020228000800CC
:10022A00831603130711831212150C309704080062
:10023A00831603135008831203178D0083168C1339
:0A024A000C1483120C08F0000800E9
:0C025400831203139B011D129D12080071
:10026000831603133A08F0003B08F1003C08F20043
:060270003D08F300080048
:10027600831603131208013EF000F1010318F10A78
:100286005008F400F5015F200630F2007008F40013
:100296007108F500720803195529F50CF40CF513CD
:1002A600FF3E4E290430F1007408F000710803196E
:1002B6006029F00D7010FF3E5A2930307005F300AA
:1002C6007408F0007508F100F10CF00CF113F10C54
:1002D600F00CF11370089B000F309D0573089D0408
:0202E60008000E
:0E02E800831603138714F03083129D0508005F
:1002F60083160313D001D101D201D3010130831239
:10030600CB0080304B020318042A0130DD00803018
:100316005D020318FE29831651084D3E84008312A0
:100326005D080005F0000319F82900305C06031D7E
:100336009E2901305B06031DB529DB01DC016F0830
:10034600003A031DB529831650080E3A031DB52938
:1003560083126B086C040130031D0030EB00EC00C7
:100366000030EC0083126F08003A031DC62983167D
:100376005008063A031DC62901308312DB000030FF
:10038600DC00EB01EC01831200306C06031DCD2965
:1003960001306B06031DD82900305C06031DD529E4
:1003A60000305B06031DD829EF0A3130F00000301B
:1003B600F1006F08F400F5015F20DA30F007053030
:1003C6000318013EF10783165008F0070318F10AD7
:1003D6007008C4007108C5004E208A110A12D400A4
:1003E600552083165008D200D3018316D00A8312F3
:1003F600DD0D5D108A298316D10A8312CB0D4B10B1
:10040600842901305605F40001305505F3007308C0
:10041600F000F101F00DF10D701070087404F30096
:1004260000307104F40040305405F2007208F00008
:10043600F00CF013F00CF013F00CF013F00CF013BA
:100446000030F1007308F0047408F1047008633E8C
:1004560084000008EF0083165208F0005308F100EC
:0204660008008C
:0E046800831603130715F03083129705080062
:1004760083160313D0018312CC010130CB008030E8
:100486004B020318A42A83165008443EF100500874
:10049600543E84000008F000710884007008800053
:1004A60083124B09850083165008543E840083123C
:1004B6000608800083165008543EF1007108840037
:1004C600831206080004F00071088400700880009A
:1004D60083165008543EF100710884008312060802
:1004E6000004F0007108840070088000831650082C
:1004F600543EF100710884000009F0007108840080
:100506007008800050084D3EF2005008543E8400AA
:100516000008F1005008443E84000009F00071080C
:10052600F005720884007008800050084D3E840073
:1005360000088312CC048316D00A8312CB0D4B100D
:04054600422A08003D
:10054A0083120313871007110330FB008A30FC0063
:10055A005530FD00FD0BAF2AFC0BAF2AFB0BAF2A6F
:10056A0000000000871407150330FB008A30FC00E6
:10057A005530FD00FD0BBF2AFC0BBF2AFB0BBF2A1F
:06058A0000000000080063
:10059000831603135008840000080319DC2A50084E
:1005A00084000008F1005108840071080006031D52
:1005B000DC2AD00AD10AC82A500884000008F000BA
:1005C000510884000008F002F101031CF103080047
:1005D000831603138710831212150C309D04080034
:1005E00083160313D201500884000008D10051087B
:1005F000003A0319062B5108D40055208316D20A5D
:0E0600005208500784000008D100F72A0800B5
:04060E00640008007C
:10061200831603135108F000F00CF013F00CF013E2
:10062200F00CF013F00CF0130030F1000730F0077B
:1006320007300318013EF1077008C4007108C500B5
:100642004E208A110A12F0005208840070088000BD
:10065200520AF2000F305105F0000030F10007306D
:10066200F00707300318013EF1077008C400710853
:10067200C5004E208A110A12F00072088400700828
:10068200800002305207F2005008F000F00CF01324
:10069200F00CF013F00CF013F00CF0130030F1003A
:1006A2000730F00707300318013EF1077008C40055
:1006B2007108C5004E208A110A12F00072088400E7
:1006C2007008800003305207F2000F305005F0002E
:1006D2000030F1000730F00707300318013EF10740
:1006E2007008C4007108C5004E208A110A12F00079
:1006F2007208840070088000043052078400800170
:020702000800ED
:10070400182783160313CC01CD01CE01CF01673026
:100714008F000130D0001D21700883160313CE0012
:10072400CF01D52BCF30990018119C201F2CCF302E
:100734008316990018159C201F2C67308316990086
:1007440018159C201F2C33308316990018159C20F3
:100754001F2C19308316990018159C201F2C0C305F
:100764008316990018159C201F2C063083169900B7
:1007740018159C201F2C03308316990018159C20F3
:100784001F2C01308316990018159C201F2C013052
:100794008316D0000430D100AC2033300313990009
:1007A40018159C201F2C003083164F06031DDC2BCC
:1007B40001304E060319942B00304F06031DE42B21
:1007C40002304E060319992B00304F06031DEC2B03
:1007D40003304E0603199F2B00304F06031DF42BE4
:1007E40004304E060319A52B00304F06031DFC2BC5
:1007F40005304E060319AB2B00304F06031D042CA5
:1008040006304E060319B12B00304F06031D0C2C85
:1008140007304E060319B72B00304F06031D142C66
:1008240008304E060319BD2B00304F06031D1C2C47
:1008340009304E060319C32BC92B831603178801ED
:1008440089018312031385018316850183128601AE
:10085400FF3083168600FF308312870083168701DA
:100864008B110B108B178101FF30831287008710C7
:100874000711871107124130FC00EE30FD00FD0B1B
:10088400412CFC0B412C0000FF308700CF201210BC
:1008940092101330831692009620FF308316D000F6
:1008A400DC201521121092101330831692002A2195
:1008B400FF308316D0003B21E82203308316D0009A
:1008C4001D217008013A031D6C2C01300313C20072
:1008D4000030C300342274210330FB008A30FC0052
:1008E4005530FD00FD0B742CFC0B742CFB0B742C8D
:1008F400000000003B22521CAE2C01308316D000B5
:100904001D217008013EF100F2010318F20A71087A
:1009140083160313C6007208C70000307206031D55
:10092400952C0A307106031D992CC601C7010130AC
:10093400D0004608D100AC20A5220630FB001330BD
:10094400FC00AD30FD00FD0BA52CFC0BA52CFB0B16
:10095400A52C000000000723D21CBA2C2A308316D1
:10096400D000F0222630D000F022A430D000F022B3
:100974008312521DBD2C521EBF2CD21DC12CD21E5F
:10098400C32C521FC52C4D1CC72CCD1CC92C4D1D6E
:10099400D82C01308316D0000430D100AC200330B1
:1009A4000313D000D101AC20A52207233021700805
:1009B400C8007108C9007208CA007308CB0000306F
:1009C40083124306031DE82C01304206031D432D08
:1009D40083164808F1004908F2004A08F3004B085E
:1009E400F4002008F1022108031C210FF20222085E
:1009F400031C220FF3022308031C230FF40200300C
:100A04007402031D0F2D00307302031D0F2D0030DF
:100A14007202031D0F2DC8307102031C432D83166F
:100A24004808A0004908A1004A08A2004B08A300F6
:100A3400023083126D07F1006E080318013EF200C4
:100A44007108ED007208EE008030F000803072060C
:100A54007002031D2F2D7108FF3C0318392DFF3040
:100A6400ED00EE018715071634227421432D15215C
:100A7400E8226D088316D000DC206D088316D000B0
:100A84003B213B227B217008CC007108CD008312EE
:100A94004C080319D32D00304306031D532D013098
:100AA4004206031D5D2D8316D001DC208316D00180
:100AB4003B21ED01EE0183164C08D0004D08D10016
:100AC400BE30D2000923BE30D000B530D100C822D8
:100AD40000307106031D702D00307006031D9D2D1E
:100AE400003083124306031D792D00304206031D96
:100AF4008A2D03308316D0000130D100AC200130A0
:100B040083120313C2000030C300871007119D2D08
:100B140003308316D000D101AC20FF3083120313BD
:100B24008700C201C301FF308316D000DC20FF30F0
:100B34008316D0003B21BE308316D000B030D100E4
:100B4400C82200307106031DA92D00307006031D54
:100B5400B62D003083124306031DB22D0130420628
:100B6400031DB62D8711B82D83128715BE30831649
:100B7400D0005E30D100C82200307106031DC42DA0
:100B840000307006031DD12D003083124306031D6F
:100B9400CD2D01304206031DD12D0712D32D831212
:060BA4000716D82CD42D29
:100E3000243084004B3083120313F0009E3083165D
:100E4000C4000630C5008A20A03084001E30031381
:100E5000F000E9308316C4000630C5008A2008007F
:100BB4003834393430340D3470342C340034003447
:100BC400003411342E3420346D34103400347A342B
:100BD40078347634633462346E3461347334643418
:100BE4006734663468346A34713477346534743401
:100BF40072347934753431343234333435343434F2
:100C0400363437346B3469346F34003400346C3424
:100C140008343834393430340D3450342C340034FE
:100C24000034003400342E3420344D340034003485
:100C34005A3458345634433442344E3441345334A1
:100C440044344734463448344A34513457344534B0
:100C540054345234593455343134323433343534D1
:100C64003434363437344B3449344F34003400345C
:100C74004C3408343834393430340D3429343A346B
:100C840000340034003400343F3420343E34003423
:100C94000034603427342D34BB347C343C347E340B
:100CA4009A347B34A8347D342F34273421344034AF
:100CB4008034253423345E342634313432343334AE
:100CC40035343434363437345B342A3428340034FD
:100CD40000345D3408343834393430340D343D3420
:100CE4003B340034003400340034BF342034B53491
:100CF400003400341B3409345F34E7342B34F134CA
:100D0400E134DF34F034A534A3345C342234A13428
:100D1400E534E834FE342434FD34F93431343234E7
:100D240033343534343436343734A934EC34F2348F
:080D340000340034F8340834E7
:040D3C00003400344B
:080D400031342E34313400344B
:100D48000D340A342A342034533474346134723400
:100D5800743469346E34673420344334683461340D
:100D680074347034613464342E342E342E340034A8
:040D7800003400340F
:0E0D7C000034003400340034003400340034FD
:020D8A00003433
:020D8C00003431
:0E0D8E000034003400340034003400340034EB
:0E0D9C000034003400340034003400340034DD
:040DAA0000340034DD
:020DAE0000340F
:0A0DB000303430343034363400346F
:100DBA000034013402340234033403340334033478
:040DCA0000340034BD
:040DCE0000340034B9
:080DD200003400340034003449
:100DDA0020345634533432343034323431342034BB
:080DEA002A340D340A340034F0
:0A0DF200303430343034373400342C
:0A0DFC003034303430343834003421
:080E0600003400340034003414
:100E0E003034313432343334343435343634373498
:100E1E00383439344134423443344434453446341E
:04400E00E42F000794
:00000001FF
