:0400000098EF03F082
:10000800F2A006D0010E0001736F000E746FF2901B
:10001800F2AA0DD0F2A40BD0FC0ED76E0B0ED66E42
:10002800F294010E3226000E3322342235221100BA
:0E003800ACB202D00000FCD7A2C0ADFF120097
:10004600F250026EF29E0500FF6A0150FE6E0050ED
:08005600FD6E02BEF28E1200E5
:10005E00220E0C6E086A096A0A6A0B6A0C06D8B47C
:10006E001FD0D8900B320A320932083203320232D4
:10007E0001320032D8A0F2D70C06D8B409D0045001
:10008E0008260550092206500A2207500B22EAD7ED
:10009E00045008260550092206500A2207500B224A
:0200AE0012003E
:1000B00089C0E1FF8AC0E2FFA1C0E6FF87C000F06F
:0800C00088C001F0C0DF12004E
:1000C8000B6A0A6A096A00500402F4CF09F0F3CFF8
:1000D80008F001500502F4CF0BF0F3CF0AF00050FE
:1000E8000502F3500926F4500A22E86A0B2201504F
:1000F8000402F3500926F4500A22E86A0B2208C0C9
:1001080000F009C001F00AC002F00BC003F01200B1
:100118000001A06B9DC0E9FF9EC0EAFFEECF9FF0F3
:100128009F51000A0EE09FC0A2F082DF0001A02BC1
:10013800A0519D25E96E000E9E21EA6EEECF9FF03C
:04014800EFD71200DB
:10014C0082928294060E0B6E130E0C6EAD0E0D6E1B
:10015C000D2EFED70C2EFCD70B2EFAD7000000006C
:10016C0082828284060E0B6E130E0C6EAD0E0D6E1B
:10017C000D2EFED70C2EFCD70B2EFAD7000000004C
:02018C0012005F
:10018E0000019D6B3F6A010E1F6E800E1F5CD8B082
:10019E008AD0380EE16E000EE26E9D51E126D8B087
:1001AE00E22A670EE96E000EEA6E9D51E926D8B07E
:1001BE00EA2AEECFE6FF1F1C806E670EE16E000E80
:1001CE00E26E9D51E126D8B0E22A81CFE6FF670E9E
:1001DE00016E000E026E9D510126D8B0022A01C09A
:1001EE00E9FF02C0EAFF8150EE10006E01C0E1FF90
:1001FE0002C0E2FF00C0E6FF670E016E000E026E47
:10020E009D510126D8B0022A01C0E9FF02C0EAFFC3
:10021E008150EE10006E01C0E1FF02C0E2FF00C08F
:10022E00E6FF670E016E000E026E9D510126D8B0DC
:10023E00022A01C0E9FF02C0EAFFEE1C006E01C0F7
:10024E00E1FF02C0E2FF00C0E6FF150EE16E000EF8
:10025E00E26E9D51E126D8B0E22A670EE96E000EDD
:10026E00EA6E9D51E926D8B0EA2AEECF01F0380E9B
:10027E00E96E000EEA6E9D51E926D8B0EA2AEE1C10
:10028E00006E0150001600C0E6FF150ED96E000E6E
:10029E00DA6E9D51D926D8B0DA2ADE503F129D2B48
:0802AE001F361F9072D71200E9
:1002B60032C000F033C001F034C002F035C003F0A4
:0202C600120024
:1002C8009DC0E9FF9EC0EAFFEE5211E09DC0E9FF24
:1002D8009EC0EAFF9FC0D9FFA0C0DAFFEE50DE182B
:1002E80006E100019D4B9E2B9F4BA02BE9D79DC09B
:1002F800E9FF9EC0EAFF9FC0D9FFA0C0DAFFDE5029
:0C030800EE5C006E016A000E015A12004B
:100314009EC000F00032009E0032009E0032009E1B
:100324000032009ECD0E0024F66E0C0EF76E000E09
:10033400F722000EF86E000EF8220900F5CF00F047
:100344009FC0E1FFA0C0E2FF00C0E6FF010E000174
:100354009F25E16E000EA021E26E0F0E9E15006E29
:10036400CD0E0024F66E0C0EF76E000EF722000E72
:10037400F86E000EF8220900F5CF00F000C0E6FF89
:10038400020E9F25E16E000EA021E26E9DC000F0DA
:100394000032009E0032009E0032009E0032009E19
:1003A400CD0E0024F66E0C0EF76E000EF722000E32
:1003B400F86E000EF8220900F5CF00F000C0E6FF49
:1003C400030E9F25E16E000EA021E26E0F0E9D1517
:1003D400006ECD0E0024F66E0C0EF76E000EF722A2
:1003E400000EF86E000EF8220900F5CF00F000C0F0
:1003F400E6FF040E9F25E16E000EA021E26EE66A80
:020404001200E4
:1004060000019D6B9E6B9F6BA06B010E1F6E800E95
:100416001F5CD8B06DD0010E1C6E800E1C5C64E2B1
:10042600150EE96E000EEA6E9E51E926D8B0EA2A4C
:100436001C50EE14006E54E0000E1E1802E1010E70
:100446001D1810E11D6A1E6A6051000A0BE19D51DC
:100456000E0A08E161516211010ED8A4000E616F07
:10046600000E626F6051000A09E19D51060A06E11D
:10047600010E1D6E000E1E6E616B626B000E621920
:1004860002E1010E611907E1000E1E1802E1000EDD
:100496001D18D8B4602B310E006E000E016E026E70
:1004A600036E60C004F0000E056E066E076ED4DDA6
:1004B600A00E00260B0E0122000E02229D510024E2
:1004C600F66E000E0120F76E000E0220F86E09008F
:1004D600F5CFA1F0EADD9DC09FF0000E0001A06FF0
:1004E6009D2B1C361C9099D79E2B1F361F908FD79D
:1004F600010E6915046E010E6815036E03C000F047
:10050600000E016E00360090013600500410036E96
:10051600000E0110046E400E6715026E02C000F058
:100526000032009E0032009E0032009E0032009E85
:10053600000E016E0350001204500112580E0024E2
:10054600E96E000E0120EA6EEECF60F09FC000F06B
:06055600A0C001F012003C
:10055C00380E0001876F000E886FA20E896F000E97
:10056C008A6FFF0E836FFF0E846F000E856F000E77
:10057C00866FFF0E8B6FFF0E8C6F000E8D6F000E53
:10058C008E6FFF0E8F6FFF0E906F000E916F000E2F
:10059C00926FAC8A900EAB6E948E949C9EAA03D0F4
:0805AC00AECF00F0FBD71200F6
:1005B400A69C9EC0AAFF9DC0A9FFA69EA680A8CF08
:0405C40000F0120031
:0805C800BB6ABA98BA9A12004E
:1005D000A6A202D00000FCD7A69C9EC0AAFF9DC088
:1005E000A9FF9FC0A8FFA69EA684F2CF00F0F29EAE
:1005F000550EA76EAA0EA76EA68200BE02D0F29E6E
:1006000001D0F28EA694A1B802D00000FCD7A19828
:020610001200D6
:100612000900F5CFE6FF0006FBE10106F9E1120051
:10062200CB50010F006E016A000E01229DC004F042
:10063200000E056E48DD060E026E00C004F001C019
:1006420005F0025005E005320432059EFF0FFAD78D
:10065200040E016E04C000F0015004E00036009068
:10066200FF0FFBD7300E0014036E04C000F005C06C
:1006720001F001320032019E01320032019E00C0BF
:0C068200BEFF0F0EBD160350BD1212008B
:10068E00CB50010F006E016A000E01229DC004F0D6
:10069E00000E056E12DD060E026E00C004F001C0E3
:1006AE0005F0025005E005320432059EFF0FFAD721
:1006BE00040E016E04C000F0015004E000360090FC
:1006CE00FF0FFBD7300E0014036E04C000F005C000
:1006DE0001F001320032019E01320032019E00C053
:0C06EE00BBFF0F0EBA160350BA12120028
:0A06FA009492CA840C0EBA1212008A
:0A0704009494CA840C0EBD1212007A
:08070E00BE6ABD98BD9A1200FD
:10071600D59CD58EF28AD59AD596D594D592D59074
:0A072600FC0ED76E0B0ED66E12000B
:100730006FEC06F00001996B9A6B9B6B9C6B670EDC
:10074000D36E010E9D6F000E9E6F34DF00C09BF0D4
:10075000000E9C6F52D0B8861A0EB06E0A0EAF6EA5
:10076000AC84FCDE81D0B886060EB06E820EAF6E11
:10077000AC84F4DE79D0B886030EB06E400EAF6E56
:10078000AC84ECDE71D0B886010EB06EA00EAF6EF8
:10079000AC84E4DE69D0B886B06ACF0EAF6EAC84AC
:1007A000DDDE62D0B886B06A670EAF6EAC84D6DE8E
:1007B0005BD0B886B06A330EAF6EAC84CFDE54D057
:1007C000B886B06A220EAF6EAC84C8DE4DD0B88653
:1007D000B06A100EAF6EAC84C1DE46D0010E9D6FC4
:1007E000000E9E6F040E9F6FF3DEB886010EB06E92
:1007F000A00EAF6EAC84B2DE37D0000E9C1902E1C1
:10080000010E9B19A8E0000E9C1902E1020E9B1933
:10081000AAE0000E9C1902E1030E9B19ACE0000E49
:100820009C1902E1040E9B19AEE0000E9C1902E136
:10083000050E9B19B0E0000E9C1902E1060E9B19F3
:10084000B1E0000E9C1902E1070E9B19B2E0000E08
:100850009C1902E1080E9B19B3E0000E9C1902E1FD
:10086000090E9B19B4E0BAD77E6A7F6A806A926AE1
:10087000816AFF0E936EFF0E826E946AF296F2907A
:100880007F0E7D6EF28EF19EFF0E826E82928294BA
:1008900082968298820E0C6EDD0E0D6E0D2EFED7A6
:1008A0000C2EFCD700000000FF0E826E34DFCA90D1
:1008B000CA92270ECB6E2BDFFF0E9D6FB2DE22DFBA
:1008C000CA90CA92270ECB6E7FDEFF0E00019D6F8D
:1008D000DEDE13DF030E00019D6F000E9E6F6ADEE9
:1008E0000050010A04E1010E366E000E376E060E4E
:1008F0000B6E130E0C6EAD0E0D6E0D2EFED70C2E64
:10090000FCD70B2EFAD70000000041DC1AA02FD034
:10091000010E9D6F000E9E6F4DDE0050010F016EA7
:10092000026A000E022201C093F002C094F0000E91
:10093000021802E10A0E011802E1936B946B010E9A
:100940009D6F000E9E6F93C09FF042DEA6EC00F0FC
:100950000B0E0B6E260E0C6E5D0E0D6E0D2EFED761
:100960000C2EFCD70B2EFAD700000000FF001AA2B5
:1009700013D0400E00019D6F000E9E6F8CEC00F0B6
:10098000630E9D6F000E9E6F8CEC00F0220E9D6F2B
:10099000000E9E6F8CEC00F01AA400D01AA800D0B4
:1009A0001AA600D01AAA00D01AAC00D015A000D008
:1009B00015A200D015A412D00001010E9D6F000EEB
:1009C0009E6F040E9F6F04DE030E00019D6F000EEC
:1009D0009E6F9F6BFDDDA6EC00F0FF006CDC00C09D
:1009E00095F001C096F002C097F003C098F0000E99
:1009F000371802E1010E361843E195C001F096C0A8
:100A000002F097C003F098C004F02E50015E2F5002
:100A1000025A3050035A3150045A000E045C08E167
:100A2000000E035C05E1010E025C02E1F40E015CC4
:100A300027E395C02EF096C02FF097C030F098C0F5
:100A400031F00A0E2024016E000E2120026E01C03A
:100A500020F002C021F0800E006E800E0218005CB3
:100A600002E10150FF0806E2FF0E206E000E216E2B
:100A70008286828820C09DF0D4DD20C09DF007DEF4
:100A8000C7EC00F0C0DC00C099F001C09AF03F5202
:100A9000D8B484D0000E371802E1010E361808E1F0
:100AA00000019D6BBEDD00019D6BF1DD206A216AB6
:100AB00099C09DF09AC09EF07F0E00019F6F000EBE
:100AC000A06F28DC7F0E9D6F000E9E6F6E0E9F6FD5
:100AD000000EA06F64EC01F0000E011802E1000EA0
:100AE000001828E1000E371802E1000E36180FE159
:100AF000030E00019D6F000E9E6F010E9F6F68DD5B
:100B0000010E366E000E376E8292829413D0030E61
:100B100000019D6F000E9E6F9F6B5ADDFF0E826E6F
:100B2000366A376AFF0E00019D6F7BDDFF0E000104
:100B30009D6FADDD7F0E00019D6F000E9E6F750EE7
:100B40009F6F000EA06F64EC01F0000E011802E12F
:100B5000000E001808E1000E371802E1010E3618E9
:100B600002E1829601D082867F0E00019D6F000E09
:100B70009E6F7A0E9F6F000EA06F64EC01F0000E66
:100B8000011802E1000E001808E1000E371802E11A
:100B9000010E361802E1829801D082881FD7FFD754
:100CDE0010EE15F04B0E006E010E016E640EF66EE8
:100CEE000C0EF76E000EF86E09EC03F010EE61F0CC
:100CFE001E0E006E010E016EAF0EF66E0C0EF76E2E
:0A0D0E00000EF86E09EC03F012006D
:100BA0003839300D702C000000112E206D10007AA5
:100BB000787663626E6173646766686A717765747C
:100BC000727975313233353436376B696F00006CAA
:100BD000083839300D502C000000002E204D000048
:100BE0005A585643424E4153444746484A51574546
:100BF00054525955313233353436374B494F000052
:100C00004C083839300D293A000000003F203E00E2
:100C10000060272DBB7C3C7E9A7BA87D2F2721403E
:100C20008025235E26313233353436375B2A28005F
:100C3000005D083839300D3D3B00000000BF20B595
:100C400000001B095FE72BF1E1DFF0A5A35C22A107
:100C5000E5E8FE24FDF931323335343637A9ECF2BC
:040C60000000F80890
:070C64000000000000000089
:010C6B000088
:020C6C00000086
:010C6E000085
:020C6F00000083
:0C0C710020565332303231202A0D0A0088
:040C7D000000000073
:040C8100000000006F
:020C850000006D
:070C87000000000000000066
:010C8E000065
:100C8F000D0A2A205374617274696E67204368617C
:080C9F00747061642E2E2E001A
:080CA700000102020303030334
:020CAF00000043
:040CB100312E3000B0
:070CB5000000000000000038
:050CBC0030303038006B
:020CC100000031
:050CC300303030370065
:050CC800303030360061
:100CCD003031323334353637383941424344454675
:020000040030CA
:0D000100081E1EFF8B81FF0FC00FE00F4097
:00000001FF
