:040000008AEF03F090
:10000800F2A006D0010E00017C6F000E7D6FF29009
:10001800F2AA0DD0F2A40BD0FC0ED76E0B0ED66E42
:10002800F294010E3926000E3A223B223C2211009E
:10003800220E0C6E086A096A0A6A0B6A0C06D8B4A2
:100048001FD0D8900B320A320932083203320232FA
:1000580001320032D8A0F2D70C06D8B409D0045027
:1000680008260550092206500A2207500B22EAD713
:10007800045008260550092206500A2207500B2270
:02008800120064
:10008A000B6A0A6A096A00500402F4CF09F0F3CF36
:10009A0008F001500502F4CF0BF0F3CF0AF000503C
:1000AA000502F3500926F4500A22E86A0B2201508D
:1000BA000402F3500926F4500A22E86A0B2208C007
:1000CA0000F009C001F00AC002F00BC003F01200F0
:0E00DA00ACB202D00000FCD7A1C0ADFF1200F6
:1000E80000019D6B2D6A010E2F6E800E2F5CD8B01B
:1000F8008AD0260EE16E000EE26E9D51E126D8B040
:10010800E22A1F0EE96E000EEA6E9D51E926D8B06C
:10011800EA2AEECFE6FF2F1C806E1F0EE16E000E5E
:10012800E26E9D51E126D8B0E22A81CFE6FF1F0E8C
:10013800016E000E026E9D510126D8B0022A01C040
:10014800E9FF02C0EAFF8150EE10006E01C0E1FF36
:1001580002C0E2FF00C0E6FF1F0E016E000E026E35
:100168009D510126D8B0022A01C0E9FF02C0EAFF6A
:100178008150EE10006E01C0E1FF02C0E2FF00C036
:10018800E6FF1F0E016E000E026E9D510126D8B0CB
:10019800022A01C0E9FF02C0EAFFEE1C006E01C09E
:1001A800E1FF02C0E2FF00C0E6FF300EE16E000E84
:1001B800E26E9D51E126D8B0E22A1F0EE96E000ECC
:1001C800EA6E9D51E926D8B0EA2AEECF01F0260E54
:1001D800E96E000EEA6E9D51E926D8B0EA2AEE1CB7
:1001E800006E0150001600C0E6FF300ED96E000EFA
:1001F800DA6E9D51D926D8B0DA2ADE502D129D2B01
:080208002F362F9072D712006F
:1002100082928294060E0B6E130E0C6EAD0E0D6E56
:100220000D2EFED70C2EFCD70B2EFAD700000000A7
:1002300082828284060E0B6E130E0C6EAD0E0D6E56
:100240000D2EFED70C2EFCD70B2EFAD70000000087
:0202500012009A
:080252009484F00EBD161200A9
:08025A009482F00EBA161200A6
:1002620000019D6B9E6B9F6BA06B010E2F6E800E2B
:100272002F5CD8B06DD0010E2E6E800E2E5C64E223
:10028200300EE96E000EEA6E9E51E926D8B0EA2AD7
:100292002E50EE14006E54E0000E381802E1010EEA
:1002A200371810E1376A386A7E51000A0BE19D5116
:1002B2000E0A08E11D501E10010ED8A4000E1D6E7C
:1002C200000E1E6E7E51000A09E19D51060A06E1EA
:1002D200010E376E000E386E1D6A1E6A000E1E1861
:1002E20002E1010E1D1807E1000E381802E1000EAE
:1002F2003718D8B47E2B310E006E000E016E026EDE
:10030200036E7EC004F0000E056E066E076E93DE6D
:10031200820E00260B0E0122000E02229D510024A5
:10032200F66E000E0120F76E000E0220F86E090034
:10033200F5CFA1F0D1DE9DC09FF0000E0001A06FAD
:100342009D2B2E362E9099D79E2B2F362F908FD7FE
:10035200010E2114046E010E2014036E03C000F07E
:10036200000E016E00360090013600500410036E3C
:10037200000E0110046E400E1F14026E02C000F047
:100382000032009E0032009E0032009E0032009E2B
:10039200000E016E0350001204500112150E0024CB
:1003A200E96E000E0120EA6EEECF7EF09FC000F0F3
:0603B200A0C001F01200E2
:0403B800FF00120030
:1003BC009EC000F00032009E0032009E0032009E73
:1003CC000032009EAF0E0024F66E0C0EF76E000E7F
:1003DC00F722000EF86E000EF8220900F5CF00F09F
:1003EC009FC0E1FFA0C0E2FF00C0E6FF010E0001CC
:1003FC009F25E16E000EA021E26E0F0E9E15006E81
:10040C00AF0E0024F66E0C0EF76E000EF722000EE7
:10041C00F86E000EF8220900F5CF00F000C0E6FFE0
:10042C00020E9F25E16E000EA021E26E9DC000F031
:10043C000032009E0032009E0032009E0032009E70
:10044C00AF0E0024F66E0C0EF76E000EF722000EA7
:10045C00F86E000EF8220900F5CF00F000C0E6FFA0
:10046C00030E9F25E16E000EA021E26E0F0E9D156E
:10047C00006EAF0E0024F66E0C0EF76E000EF72217
:10048C00000EF86E000EF8220900F5CF00F000C047
:10049C00E6FF040E9F25E16E000EA021E26EE66AD7
:0204AC0012003C
:1004AE000001A06B9DC0E9FF9EC0EAFFEECF9FF05A
:1004BE009F51000A0EE09FC0A1F008DE0001A02BA4
:1004CE00A0519D25E96E000E9E21EA6EEECF9FF0A3
:0404DE00EFD7120042
:1004E2009DC0E9FF9EC0EAFFEE5211E09DC0E9FF08
:1004F2009EC0EAFF9FC0D9FFA0C0DAFFEE50DE180F
:1005020006E100019D4B9E2B9F4BA02BE9D79DC07E
:10051200E9FF9EC0EAFF9FC0D9FFA0C0DAFFDE500C
:0C052200EE5C006E016A000E015A12002F
:0A052E009492CA840C0EBA12120057
:10053800A6A202D00000FCD7A69C9EC0AAFF9DC020
:10054800A9FF9FC0A8FFA69EA684F2CF00F0F29E46
:10055800550EA76EAA0EA76EA68200BE02D0F29E06
:1005680001D0F28EA694A1B802D00000FCD7A198C1
:0205780012006F
:10057A00D59CD58EF28AD59AD596D594D592D59012
:0A058A00FC0ED76E0B0ED66E1200A9
:10059400DA0E00018B6F000E8C6FA10E8D6F000EB2
:1005A4008E6FFF0E876FFF0E886F000E896F000E2F
:1005B4008A6FFF0E836FFF0E846F000E856F000E2F
:1005C400866FFF0E8F6FFF0E906F000E916F000EFF
:1005D400926FAC8A900EAB6E948E949C9EAA03D0BC
:0805E400AECF00F0FBD71200BE
:1005EC000900F5CFE6FF0006FBE10106F9E1120078
:1005FC00A69C9EC0AAFF9DC0A9FFA69EA680A8CFC0
:04060C0000F01200E8
:10061000CB50010F006E016A000E01229DC004F054
:10062000000E056E32DD060E026E00C004F001C041
:1006300005F0025005E005320432059EFF0FFAD79F
:10064000040E016E04C000F0015004E0003600907A
:10065000FF0FFBD7300E0014036E04C000F005C07E
:1006600001F001320032019E01320032019E00C0D1
:0C067000BBFF0F0EBA160350BA121200A6
:0A067C009494CA840C0EBD12120003
:1006860039C000F03AC001F03BC002F03CC003F0B4
:02069600120050
:08069800BE6ABD98BD9A120074
:1006A000CB50010F006E016A000E01229DC004F0C4
:1006B000000E056EEADC060E026E00C004F001C0FA
:1006C00005F0025005E005320432059EFF0FFAD70F
:1006D000040E016E04C000F0015004E000360090EA
:1006E000FF0FFBD7300E0014036E04C000F005C0EE
:1006F00001F001320032019E01320032019E00C041
:0C070000BEFF0F0EBD160350BD1212000C
:08070C00BB6ABA98BA9A120008
:1007140060EC06F00001996B9A6B9B6B9C6B670E07
:10072400D36E010E9D6F000E9E6F66DF00C09BF0BE
:10073400000E9C6F52D0B8861A0EB06E0A0EAF6EC1
:10074400AC8426DF81D0B886060EB06E820EAF6E02
:10075400AC841EDF79D0B886030EB06E400EAF6E47
:10076400AC8416DF71D0B886010EB06EA00EAF6EE9
:10077400AC840EDF69D0B886B06ACF0EAF6EAC849D
:1007840007DF62D0B886B06A670EAF6EAC8400DF54
:100794005BD0B886B06A330EAF6EAC84F9DE54D049
:1007A400B886B06A220EAF6EAC84F2DE4DD0B88645
:1007B400B06A100EAF6EAC84EBDE46D0010E9D6FB6
:1007C400000E9E6F040E9F6FB5DEB886010EB06EEC
:1007D400A00EAF6EAC84DCDE37D0000E9C1902E1B3
:1007E400010E9B19A8E0000E9C1902E1020E9B1950
:1007F400AAE0000E9C1902E1030E9B19ACE0000E66
:100804009C1902E1040E9B19AEE0000E9C1902E152
:10081400050E9B19B0E0000E9C1902E1060E9B190F
:10082400B1E0000E9C1902E1070E9B19B2E0000E24
:100834009C1902E1080E9B19B3E0000E9C1902E119
:10084400090E9B19B4E0BAD77E6A7F6A806A926AFD
:10085400816AFF0E936EFF0E826E946AF296F29096
:10086400F28EF19EFF0E826E82928294829682981C
:10087400820E0C6EDD0E0D6E0D2EFED70C2EFCD7E7
:1008840000000000FF0E826E76DECA90CA92270E28
:10089400CB6E00DFFF0E9D6F01DFEEDECA90CA92C1
:1008A400270ECB6E31DFFF0E00019D6FAFDE3DDE04
:1008B400030E00019D6F000E9E6F9EDE0050010A24
:1008C40004E1010E5E6E000E5F6EC1DCC4DC060E38
:1008D4000B6E130E0C6EAD0E0D6E0D2EFED70C2E80
:1008E400FCD70B2EFAD70000000074EC00F035A002
:1008F4002ED0010E9D6F000E9E6F7EDE0050010F04
:10090400016E026A000E022201C093F002C094F04C
:10091400000E021802E10A0E011802E1936B946BB7
:10092400010E9D6F000E9E6F93C09FF003DE6EDC80
:100934000B0E0B6E260E0C6E5D0E0D6E0D2EFED77D
:100944000C2EFCD70B2EFAD70000000033DD35A2A5
:1009540010D0640E00019D6F000E9E6FA6DD600E28
:100964009D6F000E9E6FA1DD410E9D6F000E9E6F68
:100974009CDD35A400D035A800D035A600D035AA1A
:1009840000D035AC00D030A000D030A200D030A4CC
:1009940011D00001010E9D6F000E9E6F040E9F6F1B
:1009A400C9DD030E00019D6F000E9E6F9F6BC2DDBB
:1009B4002DDC00DD66DE00C095F001C096F002C0BB
:1009C40097F003C098F0000E5F1802E1010E5E1864
:1009D40048E195C001F096C002F097C003F098C0BA
:1009E40004F03D50015E3E50025A3F50035A4050BD
:1009F400045A000E045C08E1000E035C05E1000EDD
:100A0400025C02E1C80E015C2CE395C03DF096C087
:100A14003EF097C03FF098C040F0020E4D24016EA6
:100A2400000E4E20026E01C04DF002C04EF0800E4A
:100A3400006E800E0218005C02E10150FF0809E21A
:100A4400FF0E4D6E000E4E6E8286828800DC03DC43
:100A540008D012DE6ADD4DC09DF020DE4DC09DF051
:100A6400D5DD74EC00F031EC01F000C099F001C068
:100A74009AF02D52D8B481D0000E5F1802E1010E15
:100A84005E1808E100019D6B09DE00019D6BBEDD6F
:100A94004D6A4E6A99C09DF09AC09EF07F0E000187
:100AA4009F6F000EA06F88DC7F0E9D6F000E9E6FFF
:100AB4004F0E9F6F000EA06F12DD000E011802E1B1
:100AC400000E001828E1000E5F1802E1000E5E1807
:100AD4000FE1030E00019D6F000E9E6F010E9F6FCC
:100AE40029DD010E5E6E000E5F6E8292829413D039
:100AF400030E00019D6F000E9E6F9F6B1BDDFF0EAA
:100B0400826E5E6A5F6AFF0E00019D6FC7DDFF0E95
:100B140000019D6F7BDD7F0E00019D6F000E9E6FB7
:100B2400540E9F6F000EA06FDADC000E011802E174
:100B3400000E001808E1000E5F1802E1010E5E18B5
:100B440002E1829601D082867F0E00019D6F000E25
:100B54009E6F590E9F6F000EA06FC1DC000E01182E
:100B640002E1000E001808E1000E5F1802E1010E18
:0E0B74005E1802E1829801D082881CD7FFD75C
:100CC00010EE15F0690E006E010E016E460EF66E06
:0E0CD0000C0EF76E000EF86EF6EC02F012003D
:100B82003839300D702C000000112E206D10007AC3
:100B9200787663626E6173646766686A717765749A
:100BA200727975313233353436376B696F00006CC8
:100BB200083839300D502C000000002E204D000066
:100BC2005A585643424E4153444746484A51574564
:100BD20054525955313233353436374B494F000070
:100BE2004C083839300D293A000000003F203E0001
:100BF2000060272DBB7C3C7E9A7BA87D2F2721405D
:100C02008025235E26313233353436375B2A28007D
:100C1200005D083839300D3D3B00000000BF20B5B3
:100C220000001B095FE72BF1E1DFF0A5A35C22A125
:100C3200E5E8FE24FDF931323335343637A9ECF2DA
:040C42000000F808AE
:080C4600000102020303030395
:020C4E000000A4
:070C5000000000000000009D
:070C57000000000000000096
:010C5E000095
:010C5F000094
:010C60000093
:070C6100000000000000008C
:020C680000008A
:040C6A000000000086
:040C6E000000000082
:0C0C720020565332303231202A0D0A0087
:020C7E00000074
:050C80003030303800A7
:050C85003030303700A3
:050C8A0030303036009F
:020C8F00000063
:040C9100312E3100CF
:100C95000D0A2A205374617274696E672043686176
:080CA500747061642E2E2E0014
:020CAD00000045
:100CAF003031323334353637383941424344454693
:020000040030CA
:0D000100081E1EFF8B81FF0FC00FE00F4097
:00000001FF
