:040000002BEF03F0EF
:10000800F2A005D0010E506E000E516EF290F2AAC9
:100018000DD0F2A40BD0FC0ED76E0B0ED66EF29458
:0E002800010E3F26000E40224122422211000E
:0E003600ACB202D00000FCD778C0ADFF1200C3
:10004400F250026EF29E0500FF6A0150FE6E0050EF
:08005400FD6E02BEF28E1200E7
:10005C00220E0C6E086A096A0A6A0B6A0C06D8B47E
:10006C001FD0D8900B320A320932083203320232D6
:10007C0001320032D8A0F2D70C06D8B409D0045003
:10008C0008260550092206500A2207500B22EAD7EF
:10009C00045008260550092206500A2207500B224C
:0200AC00120040
:1000AE005DC0E1FF5EC0E2FF77C0E6FF5BC000F01F
:0800BE005CC001F0C0DF12007C
:1000C6000B6A0A6A096A00500402F4CF09F0F3CFFA
:1000D60008F001500502F4CF0BF0F3CF0AF0005000
:1000E6000502F3500926F4500A22E86A0B22015051
:1000F6000402F3500926F4500A22E86A0B2208C0CB
:1001060000F009C001F00AC002F00BC003F01200B3
:100116003FC000F040C001F041C002F042C003F011
:020126001200C5
:100128005F6A3C6A010E2F6E800E2F5CD8B08AD0B1
:10013800350EE16E000EE26E5F50E126D8B0E22A7D
:10014800430EE96E000EEA6E5F50E926D8B0EA2A3F
:10015800EECFE6FF2F1C806E430EE16E000EE26EBE
:100168005F50E126D8B0E22A81CFE6FF430E016E48
:10017800000E026E5F500126D8B0022A01C0E9FFC6
:1001880002C0EAFF8150EE10006E01C0E1FF02C01C
:10019800E2FF00C0E6FF430E016E000E026E5F50E4
:1001A8000126D8B0022A01C0E9FF02C0EAFF815047
:1001B800EE10006E01C0E1FF02C0E2FF00C0E6FFE2
:1001C800430E016E000E026E5F500126D8B0022A5F
:1001D80001C0E9FF02C0EAFFEE1C006E01C0E1FFAA
:1001E80002C0E2FF00C0E6FF150EE16E000EE26EEF
:1001F8005F50E126D8B0E22A430EE96E000EEA6E9F
:100208005F50E926D8B0EA2AEECF01F0350EE96E44
:10021800000EEA6E5F50E926D8B0EA2AEE1C006E9E
:100228000150001600C0E6FF150ED96E000EDA6EFA
:100238005F50D926D8B0DA2ADE503C125F2A2F3612
:060248002F9072D7120096
:0A024E009492CA840C0EBA1212003A
:1002580073C0E9FF74C0EAFFEE5211E073C0E9FF12
:1002680074C0EAFF75C0D9FF76C0DAFFEE50DE1819
:1002780006E10001734B742B754B762BE9D773C0DD
:10028800E9FF74C0EAFF75C0D9FF76C0DAFFDE5017
:0C029800EE5C006E016A000E015A1200BC
:1002A40074C000F00032009E0032009E0032009EB6
:1002B4000032009E670E0024F66E0B0EF76E000EE1
:1002C400F722000EF86E000EF8220900F5CF00F0B8
:1002D40075C0E1FF76C0E2FF00C0E6FF010E000139
:1002E4007525E16E000E7621E26E0F0E7415006E18
:1002F400670E0024F66E0B0EF76E000EF722000E4A
:10030400F86E000EF8220900F5CF00F000C0E6FFF9
:10031400020E7525E16E000E7621E26E73C000F0C8
:100324000032009E0032009E0032009E0032009E89
:10033400670E0024F66E0B0EF76E000EF722000E09
:10034400F86E000EF8220900F5CF00F000C0E6FFB9
:10035400030E7525E16E000E7621E26E0F0E731505
:10036400006E670E0024F66E0B0EF76E000EF72279
:10037400000EF86E000EF8220900F5CF00F000C060
:10038400E6FF040E7525E16E000E7621E26EE66A44
:02039400120055
:100396005F6A0001606B736B746B010E2F6E800ECB
:1003A6002F5C3EE2010E1C6E800E1C5C35E2150EC3
:1003B600E96E000EEA6E6051E926D8B0EA2A1C50B2
:1003C600EE14006E25E0310E006E000E016E026E18
:1003D600036E52C004F0000E056E066E076E3BDE1D
:1003E600660E00260A0E0122000E02225F5000242D
:1003F600F66E000E0120F76E000E0220F86E090060
:10040600F5CF77F051DE5FC073F0000E0001746F18
:100416005F2A1C361C90C8D7602B2F362F90BFD76B
:10042600010E4514046E010E4414036E03C000F061
:10043600000E016E00360090013600500410036E67
:10044600000E0110046E400E4314026E02C000F04E
:100456000032009E0032009E0032009E0032009E56
:10046600000E016E03500012045001121D0E0024EE
:10047600E96E000E0120EA6EEECF52F073C000F076
:0604860074C001F0120039
:10048C00360E5B6E000E5C6E780E5D6E000E5E6E50
:10049C00FF0E576EFF0E586E000E596E000E5A6E00
:1004AC00FF0E0001616FFF0E626F000E636F000E96
:1004BC00646FFF0E656FFF0E666F000E676F000EA8
:1004CC00686FAC8A900EAB6E948E949C9EAA03D0EF
:0804DC00AECF00F0FBD71200C7
:0804E400BE6ABD98BD9A12002A
:0A04EC009494CA840C0EBD12120095
:1004F600A6A202D00000FCD7A69C74C0AAFF73C0B7
:10050600A9FF75C0A8FFA69EA684F2CF00F0F29EB2
:10051600550EA76EAA0EA76EA68200BE02D0F29E48
:1005260001D0F28EA694A1B802D00000FCD7A19803
:020536001200B1
:100538000900F5CFE6FF0006FBE10106F9E112002C
:08054800BB6ABA98BA9A1200CE
:10055000CB50010F006E016A000E01225FC004F053
:10056000000E056EB0DD060E026E00C004F001C084
:1005700005F0025005E005320432059EFF0FFAD760
:10058000040E016E04C000F0015004E0003600903B
:10059000FF0FFBD7300E0014036E04C000F005C03F
:1005A00001F001320032019E01320032019E00C092
:0C05B000BBFF0F0EBA160350BA12120067
:1005BC00CB50010F006E016A000E01225FC004F0E7
:1005CC00000E056E7ADD060E026E00C004F001C04E
:1005DC0005F0025005E005320432059EFF0FFAD7F4
:1005EC00040E016E04C000F0015004E000360090CF
:1005FC00FF0FFBD7300E0014036E04C000F005C0D3
:10060C0001F001320032019E01320032019E00C025
:0C061C00BEFF0F0EBD160350BD121200F1
:10062800D59CD58EF28AD59AD596D594D592D59063
:0A063800FC0ED76E0B0ED66E1200FA
:10064200A69C74C0AAFF73C0A9FFA69EA680A8CFCD
:0406520000F01200A2
:10065600BCEC05F000016F6B706B716B726B670E13
:10066600D36E010E736F000E746FE8DF00C071F079
:10067600000E726F52D0B8861A0EB06E0A0EAF6EAA
:10068600AC8401DF81D0B886060EB06E820EAF6EE6
:10069600AC84F9DE79D0B886030EB06E400EAF6E2C
:1006A600AC84F1DE71D0B886010EB06EA00EAF6ECE
:1006B600AC84E9DE69D0B886B06ACF0EAF6EAC8482
:1006C600E2DE62D0B886B06A670EAF6EAC84DBDE5F
:1006D6005BD0B886B06A330EAF6EAC84D4DE54D02D
:1006E600B886B06A220EAF6EAC84CDDE4DD0B88629
:1006F600B06A100EAF6EAC84C6DE46D0010E736FC4
:10070600000E746F040E756FF3DEB886010EB06EC0
:10071600A00EAF6EAC84B7DE37D0000E721902E1C0
:10072600010E7119A8E0000E721902E1020E71198C
:10073600AAE0000E721902E1030E7119ACE0000E78
:10074600721902E1040E7119AEE0000E721902E18F
:10075600050E7119B0E0000E721902E1060E71194C
:10076600B1E0000E721902E1070E7119B2E0000E37
:10077600721902E1080E7119B3E0000E721902E156
:10078600090E7119B4E0BAD77E6A7F6A806A926AE6
:10079600816AFF0E936EFF0E826E946AF296F29055
:1007A6007F0E7D6EF28EF19EFF0E826E8292829495
:1007B60082968298820E0C6EDD0E0D6E0D2EFED781
:1007C6000C2EFCD700000000FF0E826E2ADFCA90B6
:1007D600CA92270ECB6E83DEFF0E5F6EECDE83DEE3
:1007E600CA90CA92270ECB6EACDEFF0E5F6EADDEF0
:1007F6002BDD030E0001736F000E746F1FDF0050B8
:10080600010A04E1010E3D6E000E3E6E060E0B6EF1
:10081600130E0C6EAD0E0D6E0D2EFED70C2EFCD7E4
:100826000B2EFAD7000000007CDC1AA040D0010E87
:100836000001736F000E746F01DF0050010F016E2F
:10084600026A000E022201C069F002C06AF0000EC0
:10085600021802E10A0E011802E1696B6A6B8292C4
:100866008294060E0B6E130E0C6EAD0E0D6E0D2ED3
:10087600FED70C2EFCD70B2EFAD700000000828282
:100886008284010E736F000E746F69C075F030DEDE
:100896000B0E0B6E260E0C6E5D0E0D6E0D2EFED71C
:1008A6000C2EFCD70B2EFAD700000000FF0030DC20
:1008B60000C06BF001C06CF002C06DF003C06EF0BA
:1008C600000E3E1802E1010E3D1841E16BC001F039
:1008D6006CC002F06DC003F06EC004F04A50015EB9
:1008E6004B50025A4C50035A4D50045A000E045CA9
:1008F60008E1000E035C05E1010E025C02E1F40E64
:10090600015C25E36BC04AF06CC04BF06DC04CF047
:100916006EC04DF00A0E4E24016E000E4F20026E80
:1009260001C04EF002C04FF0800E006E800E02181D
:10093600005C02E10150FF0804E2FF0E4E6E000E5D
:100946004F6E4EC05FF037DE4EC05FF0FEDD94ECBA
:1009560000F01EDD00C06FF001C070F03C52D8B44C
:100966007DD0000E3E1802E1010E3D1806E15F6AD9
:1009760022DE5F6AEADD4E6A4F6A6FC073F070C0AE
:1009860074F0530E0001756F000E766F88DC530EFF
:10099600736F000E746F300E756F000E766F59DC34
:1009A600000E011802E1000E001826E1000E3E18A6
:1009B60002E1000E3D180FE1030E0001736F000EF9
:1009C600746F010E756F94DD010E3D6E000E3E6E66
:1009D6008292829411D0030E0001736F000E746F21
:1009E600756B86DDFF0E826E3D6A3E6AFF0E5F6E98
:1009F600E2DDFF0E5F6EA9DD530E0001736F000E80
:100A0600746F250E756F000E766F23DC000E0118CD
:100A160002E1000E001808E1000E3E1802E1010E88
:100A26003D1802E1829601D08286530E0001736F53
:100A3600000E746F2A0E756F000E766F0ADC000EBC
:100A4600011802E1000E001808E1000E3E1802E14E
:100A5600010E3D1802E1829801D0828828D7FFD77F
:100B780010EE15F03D0E006E010E016E2A0EF66E97
:0E0B88000B0EF76E000EF86E9CEC02F01200E1
:100A66003839300D702C000000002E206D00007A01
:100A7600787663626E6173646766686A71776574B7
:100A8600727975313233353436376B696F00006CE5
:100A9600083839300D502C000000002E204D000083
:100AA6005A585643424E4153444746484A51574581
:100AB60054525955313233353436374B494F00008D
:100AC6004C083839300D293A000000003F203E001E
:100AD6000060272DBB7C3C7E9A7BA87D2F2721407A
:100AE6008025235E26313233353436375B2A28009B
:100AF600005D083839300D3D3B00000000BF20B5D1
:100B06000000E69C5FE72BF1E1DFF0A5A35C22A1E4
:100B1600E5E8FE24FDF931323335343637A9ECF2F7
:040B26000000F808CB
:070B2A0000000000000000C4
:010B310000C3
:080B32000001020203030303AA
:050B3A003030303700EF
:050B3F003030303600EB
:010B440000B0
:050B45003030303800E3
:070B4A0000000000000000A4
:010B510000A3
:020B52000000A1
:040B5400000000009D
:070B58000000000000000096
:040B5F000000000092
:020B6300000090
:020B650000008E
:100B670030313233343536373839414243444546DC
:020000040030CA
:0D000100081E1EFF8B81FF0FC00FE00F4097
:00000001FF
